:020000040800F2
:1000000000000824D9160008C5150008C715000807
:10001000C9150008CB150008CD1500080000000028
:10002000000000000000000000000000CF150008E4
:10003000D115000800000000D3150008D5150008F0
:100040002D1700082D1700082D1700082D17000880
:100050002D1700082D1700082D1700082D17000870
:100060002D1700082D1700082D1700082D17000860
:100070002D1700082D1700082D1700082D17000850
:100080002D1700082D1700082D1700082D17000840
:100090002D1700082D1700082D1700082D17000830
:1000A0002D1700082D1700082D1700082D17000820
:1000B0002D1700082D1700082D1700082D17000810
:1000C0002D1700082D1700082D1700082D17000800
:1000D0002D1700082D1700082D1700082D170008F0
:1000E0002D1700082D170008000000002D1700082C
:1000F0002D1700082D1700082D1700082D170008D0
:100100002D1700082D1700082D1700082D170008BF
:100110002D1700082D1700082D1700082D170008AF
:100120002D1700082D1700082D1700082D1700089F
:100130002D1700082D1700082D1700082D1700088F
:1001400000000000000000000000000000000000AF
:100150002D1700082D1700082D1700082D1700086F
:100160002D1700082D1700082D1700082D1700085F
:100170002D1700082D1700082D170008000000009B
:100180002D1700082D1700082D1700082D1700083F
:100190002D1700082D1700082D1700082D1700082F
:1001A0002D1700082D1700082D1700082D1700081F
:1001B0002D1700082D1700082D1700082D1700080F
:1001C0002D1700082D1700082D1700082D170008FF
:1001D0002D1700082D1700082D1700082D170008EF
:1001E0002D1700082D1700082D1700082D170008DF
:1001F0002D1700082D1700082D1700082D170008CF
:100200002D1700082D1700082D1700082D170008BE
:100210002D1700082D1700082D1700082D170008AE
:100220002D1700082D1700082D17000800000000EA
:100230002D1700082D170008000000002D170008DA
:100240002D1700082D1700082D1700082D1700087E
:100250002D1700082D1700082D1700082D1700086E
:100260002D1700082D1700082D1700082D1700085E
:100270002D1700082D1700082D170008000000009A
:100280002D1700082D1700082D170008000000008A
:08029000000000002D1700081A
:1002980010B5054C237833B9044B13B10448AFF3B8
:1002A80000800123237010BD3C04002400000000DE
:1002B800503B000808B5034B1BB103490348AFF393
:1002C800008008BD0000000040040024503B0008E6
:1002D80070B54FF0FF0C4CF4E06C1CEA11541DBFD4
:1002E8001CEA135594EA0C0F95EA0C0F00F0DEF89F
:1002F8002C4481EA030621EA4C5123EA4C5350EA84
:10030800013518BF52EA033541F4801143F48013D4
:1003180038D0A0FB02CE4FF00005E1FB02E506F065
:100328000042E0FB03E54FF00006E1FB03569CF0BA
:10033800000F18BF4EF0010EA4F1FF04B6F5007FC0
:1003480064F5407404D25FEA4E0E6D4146EB060632
:1003580042EAC62141EA55514FEAC52040EA5E50BB
:100368004FEACE2EB4F1FD0C88BFBCF5E06F1ED865
:10037800BEF1004F08BF5FEA500E50F1000041EB9C
:10038800045170BD06F0004646EA010140EA020049
:1003980081EA0301B4EB5C04C2BFD4EB0C0541EA6B
:1003A800045170BD41F480114FF0000E013C00F380
:1003B800AB8014F1360FDEBF002001F0004170BDA4
:1003C800C4F10004203C35DA0C341BDC04F11404BD
:1003D800C4F1200500FA05F320FA04F001FA05F249
:1003E80040EA020001F0004221F0004110EBD37016
:1003F80021FA04F642EB06015EEA430E08BF20EA42
:10040800D37070BDC4F10C04C4F1200500FA04F3E4
:1004180020FA05F001FA04F240EA020001F0004176
:1004280010EBD37041F100015EEA430E08BF20EAE9
:10043800D37070BDC4F1200500FA05F24EEA020E31
:1004480020FA04F301FA05F243EA020321FA04F060
:1004580001F0004121FA04F220EA020000EBD37017
:100468005EEA430E08BF20EAD37070BD94F0000F17
:100478000FD101F00046400041EB010111F4801F4B
:1004880008BF013CF7D041EA060195F0000F18BFFC
:10049800704703F00046520043EB030313F4801F38
:1004A80008BF013DF7D043EA0603704794EA0C0FF2
:1004B8000CEA135518BF95EA0C0F0CD050EA410608
:1004C80018BF52EA4306D1D181EA030101F0004185
:1004D8004FF0000070BD50EA410606BF10461946AD
:1004E80052EA430619D094EA0C0F02D150EA0136B9
:1004F80013D195EA0C0F05D152EA03361CBF1046FA
:1005080019460AD181EA030101F0004141F0FE4198
:1005180041F470014FF0000070BD41F0FE4141F41C
:10052800780170BD81F0004102E000BF83F0004314
:1005380030B54FEA41044FEA430594EA050F08BF76
:1005480090EA020F1FBF54EA000C55EA020C7FEA3A
:10055800645C7FEA655C00F0E2804FEA5454D4EBB7
:100568005555B8BF6D420CDD2C4480EA020281EA81
:10057800030382EA000083EA010180EA020281EAB9
:100588000303362D88BF30BD11F0004F4FEA01310B
:100598004FF4801C4CEA113102D0404261EB41011A
:1005A80013F0004F4FEA03334CEA133302D05242A0
:1005B80063EB430394EA050F00F0A780A4F101045C
:1005C800D5F1200E0DDB02FA0EFC22FA05F2801896
:1005D80041F1000103FA0EF2801843FA05F359417C
:1005E8000EE0A5F120050EF1200E012A03FA0EFCFB
:1005F80028BF4CF0020C43FA05F3C01851EBE37125
:1006080001F0004507D54FF0000EDCF1000C7EEB41
:1006180000006EEB0101B1F5801F1BD3B1F5001F7F
:100628000CD349085FEA30004FEA3C0C04F101049E
:100638004FEA445212F5800F80F09A80BCF1004FC7
:1006480008BF5FEA500C50F1000041EB045141EA49
:10065800050130BD5FEA4C0C404141EB0101013C12
:1006680028BFB1F5801FE9D291F0000F04BF014601
:100678000020B1FA81F308BF2033A3F10B03B3F1D3
:1006880020020CDA0C3208DD02F1140CC2F10C0263
:1006980001FA0CF021FA02F10CE002F11402D8BFC1
:1006A800C2F1200C01FA02F120FA0CFCDCBF41EA8D
:1006B8000C019040E41AA2BF01EB0451294330BD5C
:1006C8006FEA04041F3C1CDA0C340EDC04F1140439
:1006D800C4F1200220FA04F001FA02F340EA030010
:1006E80021FA04F345EA030130BDC4F10C04C4F156
:1006F800200220FA02F001FA04F340EA0300294636
:1007080030BD21FA04F0294630BD94F0000F83F47F
:10071800801306BF81F480110134013D4EE77FEA62
:10072800645C18BF7FEA655C29D094EA050F08BFAE
:1007380090EA020F05D054EA000C04BF194610468F
:1007480030BD91EA030F1EBF0021002030BD5FEAD3
:10075800545C05D14000494128BF41F0004130BDFB
:1007680014F580043CBF01F5801130BD01F000454F
:1007780045F0FE4141F470014FF0000030BD7FEAC2
:10078800645C1ABF194610467FEA655C1CBF0B46BD
:10079800024650EA013406BF52EA033591EA030FD4
:1007A80041F4002130BD00BF90F0000F04BF0021CC
:1007B800704730B54FF4806404F132044FF00005FF
:1007C8004FF0000150E700BF90F0000F04BF002178
:1007D800704730B54FF4806404F1320410F00045DE
:1007E80048BF40424FF000013EE700BF42004FEAD9
:1007F800E2014FEA31014FEA02701FBF12F07F4356
:1008080093F07F4F81F06051704732F07F4208BF0C
:10081800704793F07F4F04BF41F40021704730B513
:100828004FF4607401F0004521F000411CE700BF5F
:1008380050EA010208BF704730B54FF000050AE0E2
:1008480050EA010208BF704730B511F0004502D5E3
:10085800404261EB41014FF4806404F132045FEAE5
:10086800915C3FF4D8AE4FF003025FEADC0C18BF8E
:1008780003325FEADC0C18BF033202EBDC02C2F180
:10088800200300FA03FC20FA02F001FA03FE40EA12
:100898000E0021FA02F11444BDE600BF4A0011D24D
:1008A80012F5001211D20DD56FF47873B3EB6252C2
:1008B8000ED44FEAC12343F0004343EA505323FACE
:1008C80002F070474FF00000704750EA013002D143
:1008D8004FF0FF3070474FF00000704780F0004045
:1008E80002E000BF81F0004142001FBF5FEA410300
:1008F80092EA030F7FEA226C7FEA236C6AD04FEA00
:100908001262D2EB1363C1BFD21841404840414044
:10091800B8BF5B42192B88BF704710F0004F40F4F6
:10092800000020F07F4018BF404211F0004F41F412
:10093800000121F07F4118BF494292EA030F3FD0DE
:10094800A2F1010241FA03FC10EB0C00C3F12003F1
:1009580001FA03F100F0004302D5494260EB400080
:10096800B0F5000F13D3B0F1807F06D340084FEAEB
:10097800310102F10102FE2A51D2B1F1004F40EBE0
:10098800C25008BF20F0010040EA03007047490048
:1009980040EB0000013A28BFB0F5000FEDD2B0FAE5
:1009A80080FCACF1080CB2EB0C0200FA0CF0AABF08
:1009B80000EBC25052421843BCBFD04018437047A6
:1009C80092F0000F81F4000106BF80F400000132AC
:1009D800013BB5E74FEA41037FEA226C18BF7FEA83
:1009E800236C21D092EA030F04D092F0000F08BFC5
:1009F8000846704790EA010F1CBF0020704712F0AC
:100A08007F4F04D1400028BF40F00040704712F1EA
:100A180000723CBF00F50000704700F0004343F04F
:100A2800FE4040F4000070477FEA226216BF084685
:100A38007FEA23630146420206BF5FEA412390EA48
:100A4800010F40F4800070474FF0000304E000BF3E
:100A580010F0004348BF40425FEA000C08BF7047EF
:100A680043F0964301464FF000001CE050EA0102B3
:100A780008BF70474FF000030AE000BF50EA0102C8
:100A880008BF704711F0004302D5404261EB4101B5
:100A98005FEA010C02BF84460146002043F0B643DA
:100AA80008BFA3F18053A3F50003BCFA8CF2083AFF
:100AB800A3EBC25310DB01FA02FC634400FA02FC08
:100AC800C2F12002BCF1004F20FA02F243EB02000F
:100AD80008BF20F00100704702F1200201FA02FC71
:100AE800C2F1200250EA4C0021FA02F243EB020064
:100AF80008BF20EADC7070474FF0FF0C1CEAD052A8
:100B08001EBF1CEAD15392EA0C0F93EA0C0F6FD068
:100B18001A4480EA010C400218BF5FEA41211ED046
:100B28004FF0006343EA501043EA5111A0FB013132
:100B38000CF00040B1F5000F3EBF490041EAD37107
:100B48005B0040EA010062F17F02FD2A1DD8B3F183
:100B5800004F40EBC25008BF20F00100704790F0F2
:100B6800000F0CF0004C08BF49024CEA502040EA44
:100B780051207F3AC2BFD2F1FF0340EAC25070470A
:100B880040F400004FF00003013A5DDC12F1190F48
:100B9800DCBF00F000407047C2F10002410021FABA
:100BA80002F1C2F1200200FA02FC5FEA310040F1D2
:100BB800000053EA4C0308BF20EADC70704792F04B
:100BC800000F00F0004C02BF400010F4000F013A83
:100BD800F9D040EA0C0093F0000F01F0004C02BF7E
:100BE800490011F4000F013BF9D041EA0C018FE7ED
:100BF8000CEAD15392EA0C0F18BF93EA0C0F0AD0F3
:100C080030F0004C18BF31F0004CD8D180EA010018
:100C180000F00040704790F0000F17BF90F0004FB1
:100C2800084691F0000F91F0004F14D092EA0C0F93
:100C380001D142020FD193EA0C0F03D14B0218BF26
:100C4800084608D180EA010000F0004040F0FE406C
:100C580040F40000704740F0FE4040F44000704708
:100C68004FF0FF0C1CEAD0521EBF1CEAD15392EA87
:100C78000C0F93EA0C0F69D0A2EB030280EA010C77
:100C880049024FEA402037D04FF0805343EA111110
:100C980043EA10130CF000408B4238BF5B0042F16E
:100CA8007D024FF4000C8B4224BF5B1A40EA0C0013
:100CB800B3EB510F24BFA3EB510340EA5C00B3EB45
:100CC800910F24BFA3EB910340EA9C00B3EBD10F33
:100CD80024BFA3EBD10340EADC001B0118BF5FEA85
:100CE8001C1CE0D1FD2A3FF650AF8B4240EBC250AE
:100CF80008BF20F0010070470CF0004C4CEA50206F
:100D08007F32C2BFD2F1FF0340EAC250704740F4BD
:100D180000004FF00003013A37E792F0000F00F0AF
:100D2800004C02BF400010F4000F013AF9D040EA2D
:100D38000C0093F0000F01F0004C02BF490011F4C1
:100D4800000F013BF9D041EA0C0195E70CEAD153B9
:100D580092EA0C0F08D142027FF47DAF93EA0C0FA0
:100D68007FF470AF084676E793EA0C0F04D14B0284
:100D78003FF44CAF08466EE730F0004C18BF31F036
:100D8800004CCAD130F000427FF45CAF31F0004330
:100D98007FF43CAF5FE700BF42000ED2B2F1FE4FD6
:100DA8000BD34FF09E03B3EB126209D44FEA002332
:100DB80043F0004323FA02F070474FF000007047F9
:100DC80012F1610F01D1420202D14FF0FF3070479A
:100DD8004FF00000704700BFF0B58BB000240594B9
:100DE80006940794089409942F4BD3F8E02042F016
:100DF8008002C3F8E020D3F8E02002F080020092DD
:100E0800009AD3F8E02042F00202C3F8E020D3F8B9
:100E1800E02002F002020192019AD3F8E02042F0A9
:100E28000802C3F8E020D3F8E02002F0080202929A
:100E3800029AD3F8E02042F00402C3F8E020D3F885
:100E4800E02002F004020392039AD3F8E02042F073
:100E58000102C3F8E020D3F8E03003F00103049363
:100E6800049B124F22464FF47F41384600F098FE0B
:100E78000F4D22464021284600F092FE4FF47F4352
:100E88000593012606960794089405A9384600F0AC
:100E980073FD4023059306960794089405A92846F0
:100EA80000F06AFD0BB0F0BD00440258000C025877
:100EB8000008025810B584B00024009401940294EC
:100EC800039400F00FFD01238DF800308DF80140E8
:100ED80001941F228DF8082087228DF809208DF8AB
:100EE8000A408DF80B408DF80C308DF80D308DF8D8
:100EF8000E408DF80F40684600F012FD042000F007
:100F0800FFFC04B010BD72B6FEE7000000B59DB04E
:100F18004C22002109A802F055FD2022002101A839
:100F280002F050FD022000F041FE00230093244B04
:100F3800DA6A22F00102DA62DB6A03F00103009345
:100F4800204A936923F4404343F4804393619369AF
:100F580003F440430093009B1A4B9B6913F4005F12
:100F6800FAD00223099301220C9240220D92129387
:100F780000221392042114910A21159116931793B4
:100F880018930C2119911A931B9209A800F038FEA6
:100F980090B93F23019303230293002303930493FF
:100FA8000593069307930893012101A801F08EFA8F
:100FB80020B91DB05DF804FBFFF7A5FFFFF7A3FFFD
:100FC800000400580048025800B589B0FFF772FFC6
:100FD80000F0D2FBFFF79AFFFFF7FEFE00F0F6F9EC
:100FE80000F024FA00F056F81BA5D5E900454FF4A7
:100FF800007601960023009322462B46012000F03C
:101008002BF901965A23009322462B46022000F022
:1010180023F90196B423009322462B46032000F0BF
:101028001BF94FF4007307930020069000220E4B23
:10103800CDE90423CDE9022309A3D3E90023CDE9AF
:1010480000230022094B00F04FF94FF47A7000F0AA
:10105800D3FBE6E7AFF300800000000080842E4158
:101068000000000080843E410000F03F00408F40B7
:1010780078B182B008E000BF019B01330193019B66
:10108800312BF8D9013810B100230193F7E702B0EA
:101098007047704710B501224021244800F080FDB8
:1010A800234C00224FF48041204600F079FD0022B5
:1010B8004FF40041204600F073FD00224FF4005128
:1010C800204600F06DFD00224FF48051204600F0CC
:1010D80067FD00224FF40061204600F061FD002208
:1010E8004FF48061204600F05BFD00224FF48071D0
:1010F800204600F055FD00224FF40071204600F014
:101108004FFD0320FFF7B4FF01224FF40071204682
:1011180000F046FD4FF4FA70FFF7AAFF00224FF4E3
:101128000071204600F03CFD10BD00BF00080258C9
:10113800000C025810B50D4C00224FF40041204617
:1011480000F02EFD0620FFF793FF01224FF4004127
:10115800204600F025FD0C20FFF78AFF00224FF4FF
:101168000041204600F01CFD10BD00BF000C0258D5
:1011780030B583B00D4614468DF807000022402193
:101188000E4800F00DFD4FF0FF3301220DF107016D
:101198000B4802F091FA002D18BF002C06D101224D
:1011A8004021064800F0FCFC03B030BD4FF0FF338F
:1011B8002A462146024802F07FFAF0E70008025862
:1011C800E004002408B5FFF7D3FF08BD00000000C5
:1011D80010B5144608A3D3E90023FFF779F8FFF701
:1011E8005DFB030E2370C0F307436370C0F307234E
:1011F800A370E07010BD00BF95D626E80B2E2140E5
:1012080010B50C46FFF7E0FA05A3D3E90023FFF772
:101218005FF8FFF743FBC0F307232370607010BD2E
:10122800176CC1166CC146404B78C0F301221343BA
:101238004B7088707047000000B583B0054B019370
:1012480001AB1A1801210020FFF7BCFF03B05DF8BD
:1012580004FB00BF1020408030B587B014461D46FF
:10126800204A1368ADF80C301B0C8DF80E3053680B
:10127800ADF808301B0C8DF80A309368ADF80430CF
:101288001B0C8DF80630FFF7D7FF01AA03210120B8
:10129800FFF798FF02AA03210846FFF793FF03A967
:1012A800BDF82C00FFF7C0FF03AA03210620FFF7B3
:1012B80089FF04A9BDF82800FFF7A2FF04AA0221AC
:1012C8000520FFF77FFF05AA20462946FFF780FF84
:1012D80005AA04210846FFF775FFFFF72BFF07B0A3
:1012E80030BD00BF683B000830B589B014461D46C4
:1012F8004FF6FF73ADF80C30324A1368ADF808307A
:101308001B0C8DF80A30304B1B68ADF804301B0CF1
:101318008DF806309368ADF800301B0C8DF802305C
:10132800FFF78AFF6A4603210120FFF74BFF01AA56
:1013380003210846FFF746FF05AA20462946FFF77E
:1013480047FF05AA04210846FFF73CFF05AADDE987
:101358000C01FFF73DFF05AA04210A20FFF732FF21
:1013680007AADDE90E01FFF733FF07AA04210820C9
:10137800FFF728FF06AADDE91001FFF729FF06AAF3
:1013880004210920FFF71EFF03AA02210720FFF707
:1013980019FF02A9BDF84C00FFF746FF02AA032176
:1013A8000620FFF70FFF04A9BDF84800FFF728FF44
:1013B80004AA02210520FFF705FFFFF7BBFE09B0CD
:1013C80030BD00BF683B0008783B000808B51548E9
:1013D800154B03604FF4800343604FF40033836080
:1013E8000723C3600023036143614FF08062826179
:1013F8004FF0A042C261036243628362C3624FF04E
:10140800804242638363C363036443648364C36445
:1014180003654365836502F087F800B908BDFFF7E7
:1014280072FDFBE7580400240038004008B5144852
:10143800144B03604FF4800343604FF40033836020
:101448000723C3600023036143614FF08062826118
:101458004FF08042C261036243628362C3624263A7
:101468008363C363036443648364C364036543653C
:10147800836502F059F800B908BDFFF744FDFBE7A2
:10148800E0040024003C004010B5BAB00446002136
:1014980035913691379138913991C02204A802F0DC
:1014A80091FA2368374A934204D0374A934235D099
:1014B8003AB010BD4FF480520023CDE9042304A8AC
:1014C80001F05AFA38BB314BD3F8E82042F4804295
:1014D800C3F8E820D3F8E82002F480420092009A8A
:1014E800D3F8E02042F00202C3F8E020D3F8E0305D
:1014F80003F002030193019B4FF420433593022329
:1015080036930023379338930523399335A9204818
:1015180000F032FACCE7FFF7F6FCD4E74FF480523C
:101528000023CDE9042304A801F026FA38BB174BA1
:10153800D3F8E82042F40042C3F8E820D3F8E820C2
:1015480002F400420292029AD3F8E02042F0040228
:10155800C3F8E020D3F8E03003F004030393039BBF
:101568004FF4A053359302233693002337933893CF
:101578000623399335A9074800F0FEF998E7FFF7E5
:10158800C2FCD4E700380040003C00400044025848
:10159800000402580008025882B0074BD3F8F42020
:1015A80042F00202C3F8F420D3F8F43003F0020347
:1015B8000193019B02B0704700440258FEE7FEE722
:1015C800FEE7FEE7FEE770477047704708B500F092
:1015D80001F908BD2D4B1B6803F00F03062B06D835
:1015E8002A4A136823F00F0343F007031360284BBC
:1015F8001A6842F001021A6000221A611968254A25
:101608000A401A60214B1B6813F0080F06D01F4AC6
:10161800136823F00F0343F0070313601C4B0022E9
:101628009A61DA611A621C4999621C49D9621C499B
:1016380019635A639963DA6319645A64196821F45F
:10164800802119601A66174B1A68174B1340B3F1BB
:10165800005F03D2154B0122C3F808210C4BD3F8C5
:10166800D43013F4805F10D1094BD3F8D42042F45E
:101678008052C3F8D4200E4A43F2D2011160D3F845
:10168800D42022F48052C3F8D4207047002000529E
:10169800004402587FEDF6EA000202020000FF0152
:1016A800800201010010005C0000FFFF0080005173
:1016B80000400052054AD36843F00203D360034B4D
:1016C8005B6813F4005FFAD0704700BF0048025807
:1016D800DFF838D0FFF7EEFFFFF77CFF0C480D4925
:1016E8000D4A002302E0D458C4500433C4188C4275
:1016F800F9D30A4A0A4C002301E013600432A242DB
:10170800FBD302F03BF9FFF75FFC704700000824A9
:10171800000000243C0400249C3B00083C040024F6
:1017280070050024FEE70000104B1B780BB9012060
:10173800704710B504464FF47A70B0FBF3F30C4AC7
:101748001068B0FBF3F000F0B9F868B90F2C01D9B4
:1017580001200AE0002221464FF0FF3000F078F81F
:10176800044B1C60002000E0012010BD080000248C
:10177800000000240C00002410B5032000F056F8E7
:1017880000F098FD0F498B69C3F303230E4AD35C1D
:1017980003F01F03D8408B6903F00F03D35C03F0F9
:1017A8001F0320FA03F3094A1360094B18600F203E
:1017B800FFF7BAFF10B10124204610BD0446FFF719
:1017C800EBFEF9E7004402587C3B000804000024C3
:1017D80000000024034B1B78034A11680B44136074
:1017E800704700BF0800002468050024014B1868F2
:1017F800704700BF6805002438B50446FFF7F6FFB8
:101808000546B4F1FF3F02D0044B1B781C44FFF798
:10181800EDFF401BA042FAD338BD00BF08000024EA
:10182800014B1868000C70470010005C0649CB6833
:1018380023F4E0631B041B0C000200F4E060034384
:10184800024A1A43CA60704700ED00E00000FA053A
:1018580000B5174BDB68C3F30223C3F1070CBCF1D7
:10186800040F28BF4FF0040C03F1040EBEF1060F5D
:1018780014D9033B4FF0FF3E0EFA0CFC21EA0C0191
:1018880099400EFA03F322EA03031943002807DB01
:101898000901C9B2074B19545DF804FB0023E9E7B5
:1018A80000F00F000901C9B2034B1954F4E700BF57
:1018B80000ED00E000E400E014ED00E00138B0F1D4
:1018C800807F0BD24FF0E0235861054AF02182F85F
:1018D80023100020986107221A6170470120704781
:1018E80000ED00E0BFF35F8F044B5A6A22F48032A8
:1018F8005A620022C3F89420704700BF00ED00E050
:1019080040F00100054BC3F894005A6A42F4803253
:101918005A62BFF34F8FBFF36F8F704700ED00E03F
:101928004378144AC2F89830D2F8A03023F0010363
:10193800C2F8A0304368C2F89C30017BC37A1B060A
:1019480043EA0173817A43EAC143417B43EA814315
:10195800817B43EA4143C17B43EA0143417A43EA3D
:101968000123017A43EA410301780B43C2F8A0300E
:10197800704700BF00ED00E070B582B000236EE054
:1019880085685E000324B44025EA0405CC68B440A9
:101998002C438460446824EA0C0C4C68C4F300149B
:1019A8009C4044EA0C0444606CE0DD08083550F8BB
:1019B800256003F007044FEA840C0F2404FA0CF4A2
:1019C80026EA040E0C6904FA0CF444EA0E0440F802
:1019D80025406FE0092400E0002404FA0EF42C43AB
:1019E8000CF1020C6B4D45F82C404FF0B0442568C3
:1019F800D44325EA0206D1F804C01CF4801F01D0A4
:101A080042EA05064FF0B0452E606D6804EA050607
:101A1800D1F804C01CF4001F01D042EA05064FF0BB
:101A2800B0456E60D5F8845004EA0506D1F804C0C4
:101A38001CF4003F01D042EA05064FF0B045C5F856
:101A48008460D5F880502C404E6816F4803F01D051
:101A580042EA05044FF0B042C2F8804001330A68F8
:101A680032FA03F400F093804FF0010C0CFA03FCF7
:101A78001CEA0202F2D04C6804F00304013C012C79
:101A88007FF67EAF4C6804F00304032C0CD0C468C6
:101A98005D004FF0030C0CFA05FC24EA0C0C8C6872
:101AA800AC4044EA0C04C4604C6804F00304022C03
:101AB8003FF47BAF04684FEA430E4FF0030C0CFA77
:101AC8000EFC24EA0C0C4C6804F0030404FA0EF42F
:101AD80044EA0C0404604C6814F4403FBED02E4C19
:101AE800D4F8F45045F00205C4F8F450D4F8F440A2
:101AF80004F002040194019C4FEA930C0CF10205D6
:101B0800244C54F8255003F003044FEA840E0F24A4
:101B180004FA0EF425EA0405204CA0423FF45CAF19
:101B280004F58064A04222D004F58064A04220D04D
:101B380004F58064A0421ED004F58064A0421CD045
:101B480004F58064A0421AD004F58064A04218D03D
:101B580004F58064A04216D004F58064A04214D035
:101B680004F58064A0423FF435AF0A2435E7012428
:101B780033E7022431E703242FE704242DE7052463
:101B88002BE7062429E7072427E7082425E702B0DE
:101B980070BD00BF000400580044025800000258FD
:101BA8000AB181617047090481617047134BDB6892
:101BB80013F0040F07D1114BDB6803F007038342CE
:101BC8001AD00120704710B50C4AD36823F00703D8
:101BD8001843D060FFF70AFE0446084B5B6813F40D
:101BE800005F07D1FFF702FE001BB0F57A7FF4D93A
:101BF800012000E0002010BD002070470048025876
:101C0800002800F0398338B50446036813F0010F43
:101C180025D0944A136903F03803926A102B15D023
:101C2800182B0FD06368B3F5803F3FD0002B53D1FA
:101C38008C4B1A6822F480321A601A6822F48022C7
:101C48001A6038E002F00302022AEBD1854B1B68C8
:101C580013F4003F03D06368002B00F00F83236860
:101C680013F0020F00F0A1807E4A1369926A13F004
:101C780038035AD0182B55D0E368002B00F0DE80CB
:101C880078490A6822F0190213430B60FFF7AEFD8A
:101C98000546744B1B6813F0040F40F0AD80FFF746
:101CA800A5FD401B0228F4D90320EEE26D4A136813
:101CB80043F48033136063682BB3FFF797FD054641
:101CC800684B1B6813F4003FC9D1FFF78FFD401B19
:101CD8006428F5D90320D8E2B3F5A02F09D0614BC9
:101CE8001A6822F480321A601A6822F480221A6074
:101CF800E1E75C4B1A6842F480221A601A6842F4E1
:101D080080321A60D7E7FFF771FD0546554B1B680F
:101D180013F4003FA3D0FFF769FD401B6428F5D9F1
:101D28000320B2E212F0030FA6D14E4B1B6813F04A
:101D3800040F03D0E368002B00F0A282494A13681D
:101D480023F01903E1680B431360FFF74FFD0546C5
:101D5800444B1B6813F0040F06D1FFF747FD401BE7
:101D68000228F5D9032090E2FFF75AFD41F2030358
:101D7800984212D82269402A07D03A494B6823F47E
:101D88007C3343EA02334B600FE0364A536823F44E
:101D98007C3343F40033536007E0324A536823F03E
:101DA800FE43216943EA01635360236813F0100F6F
:101DB80000F088802B4A136903F03803926A082BD5
:101DC80056D0182B50D0E369002B00F0B880254A74
:101DD800136843F080031360FFF708FD0546214BA5
:101DE8001B6813F4807F40F08880FFF7FFFC401BDE
:101DF8000228F4D9032048E2FFF712FD41F2030359
:101E0800984212D82269402A07D016494B6823F411
:101E18007C3343EA02334B60C7E7124A536823F422
:101E28007C3343F400335360BFE70E4A536823F012
:101E3800FE43216943EA01635360B6E7094A136820
:101E480023F001031360FFF7D1FC0546054B1B681F
:101E580013F0040FA9D0FFF7C9FC401B0228F5D9DD
:101E6800032012E20044025802F00302012AAAD118
:101E7800A14B1B6813F4807F03D0E369802B40F0EB
:101E88000182FFF7CDFC41F20303984212D8226A7F
:101E9800202A07D098494B6823F0F84343EA826325
:101EA8004B600FE0944A536823F0F84343F08043B3
:101EB800536007E0904AD36823F07C53216A43EAD1
:101EC8000163D360236813F0080F60D06369002BA7
:101ED80049D0894A536F43F001035367FFF786FCE3
:101EE8000546854B5B6F13F0020F50D1FFF77EFC60
:101EF800401B0228F5D90320C7E1FFF791FC41F206
:101F08000303984212D8226A202A07D07A494B68DC
:101F180023F0F84343EA82634B60D3E7764A536879
:101F280023F0F84343F080435360CBE7724AD36809
:101F380023F07C53216A43EA0163D360C2E76E4A07
:101F4800136823F080031360FFF750FC05466A4BC3
:101F58001B6813F4807FB5D0FFF748FC401B0228AC
:101F6800F5D9032091E1644A536F23F001035367C5
:101F7800FFF73CFC0546604B5B6F13F0020F06D081
:101F8800FFF734FC401B0228F5D903207DE12368C4
:101F980013F0200F29D0A3699BB1574A136843F463
:101FA80080531360FFF722FC0546534B1B6813F45C
:101FB800005F1AD1FFF71AFC401B0228F5D903204D
:101FC80063E14D4A136823F480531360FFF70EFC56
:101FD8000546494B1B6813F4005F06D0FFF706FC63
:101FE800401B0228F5D903204FE1236813F0040FA2
:101FF80021D1636A002B00F047813F4A126902F041
:102008003802182A00F0EE80022B79D03A4A136879
:1020180023F080731360FFF7E9FB0446364B1B6817
:1020280013F0007F00F0DC80FFF7E0FB001B0228C4
:10203800F4D9032029E1314A136843F4807313600B
:10204800FFF7D4FB05462D4B1B6813F4807F06D1A0
:10205800FFF7CCFB401B6428F5D9032015E1A368E2
:10206800012B0AD00BBB244B1A6F22F001021A670E
:102078001A6F22F004021A6704E01F4A136F43F034
:1020880001031367A36833B3FFF7B0FB05461A4B88
:102098001B6F13F0020FACD1FFF7A8FB401B41F2F6
:1020A80088339842F3D90320EFE0052B09D0124B6F
:1020B8001A6F22F001021A671A6F22F004021A67D7
:1020C800E0E70D4B1A6F42F004021A671A6F42F0EC
:1020D80001021A67D6E7FFF789FB0546064B1B6F17
:1020E80013F0020F85D0FFF781FB401B41F28833C4
:1020F8009842F3D90320C8E0004402580048025827
:10210800694A136823F080731360FFF76FFB054675
:10211800654B1B6813F0007F06D0FFF767FB401B79
:102128000228F5D90320B0E05F4B996A5F4A0A405C
:10213800A16AE06A41EA00110A439A62226B013AF5
:10214800C2F30802616B0139490289B20A43A16BE3
:102158000139090401F4FE010A43E16B013909065A
:1021680001F0FE410A431A63DA6A22F00102DA62D8
:10217800596B4F4A0A40A16C42EAC1025A63DA6AB3
:1021880022F00C02216C0A43DA62DA6A22F00202B7
:10219800616C0A43DA62DA6A42F48032DA62DA6A35
:1021A80042F40032DA62DA6A42F48022DA62DA6AE7
:1021B80042F00102DA621A6842F080721A60FFF790
:1021C80015FB0446384B1B6813F0007F06D1FFF758
:1021D8000DFB001B0228F5D9032056E0002054E02F
:1021E800002052E0304A916A106B012B4ED001F06A
:1021F8000303A26A93424BD1C1F30511E36A9942E2
:1022080048D1C0F30802236B013B9A4244D1C0F382
:102218004622636B013B9A4240D1C0F30642A36B4E
:10222800013B9A423CD1C0F30660E36B013B984204
:1022380038D11D4B5B6BC3F3CC03A26C9A4201D11E
:10224800002022E0184AD36A23F00103D362FFF783
:10225800CDFA0546FFF7CAFAA842FBD0124A516BDD
:10226800134B0B40A16C43EAC1035363D36A43F099
:102278000103D362002008E001207047012004E038
:10228800012002E0012000E0002038BD0120FCE729
:102298000120FAE70120F8E70120F6E70120F4E73A
:1022A8000120F2E70120F0E7004402580CFCFFFF90
:1022B8000700FFFFF8B57E4B1B6903F03803102BAE
:1022C80000F0F280182B10D013B17A4C2046F8BDDC
:1022D800774B1B6813F0200F00F0E880744B1868E8
:1022E800C0F3C100744CC440F0E7714B9D6A05F01F
:1022F80003059C6AC4F30514D86A00F001005B6BFF
:10230800C3F3CC0303FB00F0FEF79EFB0646002C4C
:10231800DCD0012D76D0022D00F0A4800DB320462C
:10232800FEF792FB01466548FEF79AFC0446604BAF
:10233800186BC0F30800FEF787FB05464FF06451A1
:102348003046FEF7D9FB01462846FEF7CDFA4FF096
:102358007E51FEF7C9FA01462046FEF7CDFB04463A
:1023680071E0534B1B6813F0200F29D0504F3B6886
:10237800C3F3C1035048D840FEF766FB0546204624
:10238800FEF762FB01462846FEF76AFC0446386BF6
:10239800C0F30800FEF758FB05464FF0645130467D
:1023A800FEF7AAFB01462846FEF79EFA4FF07E513B
:1023B800FEF79AFA01462046FEF79EFB044642E0E5
:1023C8002046FEF741FB01463D48FEF749FC04461E
:1023D800374B186BC0F30800FEF736FB05464FF085
:1023E80064513046FEF788FB01462846FEF77CFA22
:1023F8004FF07E51FEF778FA01462046FEF77CFB47
:10240800044620E02046FEF71FFB01462B48FEF756
:1024180027FC0446264B186BC0F30800FEF714FB94
:1024280005464FF064513046FEF766FB01462846E4
:10243800FEF75AFA4FF07E51FEF756FA014620464B
:10244800FEF75AFB04461A4B1B6BC3F34623581C72
:10245800FEF7FAFA01462046FEF702FCFEF79CFC5E
:10246800044633E72046FEF7EFFA01461548FEF723
:10247800F7FB04460E4B186BC0F30800FEF7E4FAAE
:1024880005464FF064513046FEF736FB01462846B4
:10249800FEF72AFA4FF07E51FEF726FA014620464B
:1024A800FEF72AFB0446CEE7074C0FE7024C0DE780
:1024B8000044025800093D000090D0030024744AEB
:1024C8000024744C20BCBE4B40787D01002800F0ED
:1024D800328170B50D4604469B4B1B6803F00F0311
:1024E8008B420BD2984A136823F00F030B431360F7
:1024F800136803F00F038B4240F01F81236813F029
:10250800040F0CD02269914B9B6903F070039A4227
:1025180005D98E498B6923F070031A438A612368B1
:1025280013F0080F0CD06269884BDB6903F0700365
:102538009A4205D98549CB6923F070031A43CA61C9
:10254800236813F0100F0CD0A269804BDB6903F4E9
:10255800E0639A4205D97D49CB6923F4E0631A43C5
:10256800CA61236813F0200F0CD0E269774B1B6A0D
:1025780003F070039A4205D974490B6A23F070037B
:102588001A430A62236813F0020F0CD0E2686F4BFB
:102598009B6903F00F039A4205D96C498B6923F0B4
:1025A8000F031A438A61236813F0010F41D0674A69
:1025B800936923F47063A1680B4393616368022BEA
:1025C8000AD0032B27D0012B2CD0604A126812F0B6
:1025D800040F06D10120ADE0126812F4003F00F0AC
:1025E800AE805A490A6922F0070213430B61FFF7CC
:1025F800FDF80646554B1B6903F038036268B3EBD8
:10260800C20F16D0FFF7F2F8801B41F288339842C8
:10261800F0D903208EE04D4A126812F0007FE0D115
:10262800012087E0494A126812F4807FD9D101203D
:1026380080E0236813F0020F0CD0E268434B9B69DB
:1026480003F00F039A4205D240498B6923F00F0328
:102658001A438A613C4B1B6803F00F03AB420AD94B
:10266800394A136823F00F032B431360136803F0F0
:102678000F03AB4265D1236813F0040F0CD0226915
:10268800324B9B6903F070039A4205D22F498B693C
:1026980023F070031A438A61236813F0080F0CD0E3
:1026A80062692A4BDB6903F070039A4205D2274915
:1026B800CB6923F070031A43CA61236813F0100F23
:1026C8000CD0A269214BDB6903F4E0639A4205D27E
:1026D8001E49CB6923F4E0631A43CA61236813F0E7
:1026E800200F0CD0E269194B1B6A03F070039A4261
:1026F80005D216490B6A23F070031A430A62FFF7E2
:10270800D9FD12498B69C3F30323114AD35C03F043
:102718001F03D8408B6903F00F03D35C03F01F033A
:1027280020FA03F30B4A13600B4B18600B4B186825
:10273800FEF7FAFF70BD012070470120FAE701207B
:10274800F8E70120F6E700BF0020005200440258D5
:102758007C3B000804000024000000240C00002436
:10276800404B9B6A03F00303032B79D070B50546F1
:102778000E463C4A136823F080631360FFF736F86F
:102788000446384B1B6813F0006F06D0FFF72EF88D
:10279800031B022BF5D9032070BD324B9A6A22F431
:1027A8007C32296842EA01329A626A68013AC2F3C5
:1027B8000802A9680139490289B20A43E96801395E
:1027C800090401F4FE010A4329690139090601F0E7
:1027D800FE410A439A63DA6A22F0C00269690A4331
:1027E800DA62DA6A22F02002A9690A43DA62DA6A4E
:1027F80022F01002DA62D96B1B4A0A40E96942EA00
:10280800C102DA63DA6A42F01002DA62C6B91A461D
:10281800DB6A43F40023D362124A136843F08063EF
:102828001360FEF7E3FF04460E4B1B6813F0006FBE
:1028380014D1FEF7DBFF001B0228F5D90320ABE714
:10284800012E05D0074AD36A43F40013D362E3E7A5
:10285800044AD36A43F48013D362DDE700209BE780
:1028680001207047004402580700FFFF404B9B6A55
:1028780003F00303032B79D070B505460E463C4A96
:10288800136823F080531360FEF7B0FF0446384BFB
:102898001B6813F0005F06D0FEF7A8FF031B022B8E
:1028A800F5D9032070BD324B9A6A22F07C722968F0
:1028B80042EA01529A626A68013AC2F30802A968B8
:1028C8000139490289B20A43E9680139090401F466
:1028D800FE010A4329690139090601F0FE410A434C
:1028E8001A64DA6A22F4406269690A43DA62DA6AC7
:1028F80022F40072A9690A43DA62DA6A22F4807261
:10290800DA62596C1B4A0A40E96942EAC1025A6410
:10291800DA6A42F48072DA62C6B91A46DB6A43F4AC
:102928008003D362124A136843F080531360FEF7A2
:102938005DFF04460E4B1B6813F0005F14D1FEF7D1
:1029480055FF001B0228F5D90320ABE7012E05D05F
:10295800074AD36A43F08073D362E3E7044AD36A31
:1029680043F40003D362DDE700209BE701207047B2
:10297800004402580700FFFFF8B50446036813F047
:10298800006F30D0836EB3F5001F26D00ED8EBB1A0
:10299800B3F5801F07D102210830FFF7E1FE054695
:1029A80045B12E4621E0012635461EE0B3F5401F0D
:1029B80009D10025984A136D23F44013A16E0B43E7
:1029C8001365002611E0012635460EE0924AD36AC7
:1029D80043F40033D3620025ECE702212830FFF7E7
:1029E80045FF0546DCE700263546236813F4807F5B
:1029F80014D0A36D042B32D8DFE803F003232A0890
:102A08000800854AD36A43F40033D36255BB824A2F
:102A1800136D23F00703A16D0B431365236813F4AB
:102A2800007F31D0E36D802B4CD020D8002B43D0D1
:102A3800402B19D1002104F10800FFF791FE05464B
:102A48001AE0002104F10800FFF78AFE0546DDE7D9
:102A5800002104F12800FFF709FF0546D6E7012603
:102A68003546DBE72E46D9E7012635460CE0C02B74
:102A780002D0B3F5807F1CD15DBB674A136D23F488
:102A8800E073E16D0B431365236813F4806F46D040
:102A9800D4F8A830B3F5800F39D01FD88BB3B3F56D
:102AA800001F18D1002104F10800FFF759FE054660
:102AB8001AE001263546E7E7574AD36A43F400335C
:102AC800D362D9E7002104F12800FFF7CFFE0546BD
:102AD800D2E72E46D8E70126354620E0B3F5C00FE9
:102AE80002D0B3F5000F09D1C5B94B4A936D23F451
:102AF8006003D4F8A8100B43936510E0012635460F
:102B08000DE0454AD36A43F40033D362ECE7002171
:102B180004F12800FFF7AAFE0546E5E72E462368DC
:102B280013F4006F24D0D4F8AC30B3F1007F42D056
:102B38000ED8002B39D0B3F1807F06D1002104F1E3
:102B48000800FFF70DFE054608E0012635460FE0B0
:102B5800B3F1407F02D0B3F1806F23D1002D31D182
:102B68002D4A936D23F0E063D4F8AC100B439365C2
:102B7800236813F0007F2ED0E36C202B40D026D89A
:102B880033B1102B20D1244AD36A43F40033D362E3
:102B9800002D3CD1204AD36C23F03003E16C0B4369
:102BA800D36418E001263546E2E71B4AD36A43F4AA
:102BB8000033D362D2E7002104F12800FFF756FE64
:102BC8000546CBE72E46D3E70126354603E0302BF2
:102BD800DED001263546236813F4805F2DD0236E9E
:102BE800B3F5005F4FD019D8002B46D0B3F5805FFE
:102BF8000FD1002104F10800FFF7B2FD054613E0EC
:102C0800022104F10800FFF7ABFD0546C0E72E4698
:102C1800E1E70126354610E000440258B3F5405F6D
:102C280002D0B3F5804F25D1002D33D1774A136DEB
:102C380023F4E043216E0B431365236813F4005F0C
:102C480038D0636EB3F5003F53D028D843B1B3F5FD
:102C5800803F21D1012104F10800FFF781FD0546DD
:102C6800002D4DD1694A136D23F4E023616E0B43A7
:102C780013651FE001263546DFE7644AD36A43F44B
:102C88000033D362D0E7002104F12800FFF7EEFDFE
:102C98000546C9E72E46D0E7012635460AE0B3F5D2
:102CA800802FDDD0B3F5A02FDAD0B3F5403FD7D0D1
:102CB80001263546236813F4804F31D0D4F8B0305C
:102CC800B3F1005F45D020D843B1B3F1805F19D18B
:102CD800012104F10800FFF743FD0546002D3FD10F
:102CE8004A4A936D23F0E043D4F8B0100B43936540
:102CF80016E0012104F12800FFF7B8FD0546AFE70B
:102D08002E46D7E7012635460AE0B3F1804FE5D0D5
:102D1800B3F1A04FE2D0B3F1405FDFD001263546D2
:102D2800236813F4004F09D0236FB3F1805F19D0E3
:102D3800B3F1005F24D0D3B101263546236813F0E0
:102D4800807F33D0A36C032B5BD8DFE803F0272206
:102D58005327012104F12800FFF788FD0546BDE748
:102D68002E46DDE7294AD36A43F40033D36275B9A6
:102D7800264A136D23F04053216F0B431365DDE79B
:102D8800012104F10800FFF7EBFC0546EFE72E46AA
:102D9800D4E71E4AD36A43F40033D362A5BB1B4A67
:102DA800D36C23F00303A16C0B43D364236813F49F
:102DB800800F2DD1236813F0010F00F0A580E36F79
:102DC800282B00F29F80DFE803F08D9D9D9D9D9D3F
:102DD8009D9D879D9D9D9D9D9D9D969D9D9D9D9D38
:102DE8009D9D8D9D9D9D9D9D9D9D8D9D9D9D9D9D2B
:102DF8009D9D8D00022104F10800FFF7B1FC0546F6
:102E0800CCE701263546D1E72E46CFE700440258E5
:102E1800914A136843F480731360FEF7E7FC074692
:102E28008D4B1B6813F4807F05D1FEF7DFFCC01BB8
:102E38006428F5D90325002D4AD1884B1B6FD4F897
:102E4800B420534013F4407F0CD0844B1A6F22F403
:102E58004072196F41F480311967196F21F480317C
:102E680019671A67D4F8B430B3F5807F15D08DBBD5
:102E7800D4F8B43003F44072B2F5407F1ED0774ADC
:102E8800136923F47C53136174490B6FD4F8B4208D
:102E9800C2F30B0213430B678CE7FEF7A7FC074648
:102EA8006E4B1B6F13F0020FE1D1FEF79FFCC01BA6
:102EB80041F288339842F3D90325D8E76748026975
:102EC80022F47C52664901EA131313430361DBE7DA
:102ED8002E466FE72E466DE7012104F10800FFF743
:102EE8003FFC0546E5B95D4A536D23F03803E16FB1
:102EF8000B43536508E0012104F12800FFF7B6FCF5
:102F08000546EFE701263546236813F0020F17D070
:102F1800A36F052B28D8DFE803F00B05200B0B0B5C
:102F28002E46F1E7012104F10800FFF719FC0546D8
:102F3800EDB94A4A536D23F00703A16F0B4353655C
:102F4800236813F0040F23D0D4F89430052B45D808
:102F5800DFE803F0150F3D151515012104F12800D0
:102F6800FFF784FC0546E3E701263546E8E72E46E9
:102F7800E6E7012104F10800FFF7F2FB054685BBEF
:102F8800364A936D23F00703D4F894100B439365E6
:102F9800236813F0200F34D0D4F89030B3F1005FD9
:102FA8004ED023D843B1B3F1805F1CD1002104F186
:102FB8000800FFF7D5FB0546002D48D1274A536D79
:102FC80023F0E043D4F890100B43536519E0012136
:102FD80004F12800FFF74AFC0546D0E701263546EC
:102FE800D6E72E46D4E7012635460AE0B3F1804FEE
:102FF800E2D0B3F1A04FDFD0B3F1405FDCD00126BF
:103008003546236813F0400F37D0D4F89C30B3F519
:10301800006F53D026D843B1B3F5806F19D1002182
:1030280004F10800FFF79CFB0546002D4DD10B4A23
:10303800936D23F4E053D4F89C100B4393651CE084
:10304800022104F12800FFF711FC0546B4E72E46DB
:10305800D7E70126354610E00048025800440258D8
:10306800CFFFFF00B3F5805FDFD0B3F5A05FDCD002
:10307800B3F5406FD9D001263546236813F0800F89
:1030880033D0D4F8A030B3F5804F00F0A38021D816
:1030980043B1B3F5005F1AD1002104F10800FFF72E
:1030A8005FFB0546002D40F09C80814A936D23F418
:1030B8006043D4F8A0100B43936516E0022104F195
:1030C8002800FFF7D3FB0546AFE72E46D5E70126D4
:1030D80035460AE0B3F5004FE4D0B3F5204FE1D010
:1030E800B3F5C04FDED001263546236813F0080F2C
:1030F8000CD0D4F88430B3F5805F74D06C4A536D2B
:1031080023F44053D4F884100B435365236813F019
:10311800100F0CD0D4F89830B3F5807F6CD0644A87
:10312800936D23F44073D4F898100B439365236888
:1031380013F4002F0BD0D4F8A430B3F5803F74D02B
:10314800B3F5003F67D0002B5FD0012635462368D2
:1031580013F4802F0CD0D4F88830B3F5001F7CD03E
:10316800B3F5401F6FD0B3F5801F67D001263546F1
:10317800236813F4803F08D0236D002B76D0B3F575
:10318800803F00F0818001263546236813F0005FF8
:1031980040F08380236813F4003F00F08E80D4F859
:1031A8008030B3F5807F00F0EC8040F28380B3F587
:1031B800007F03D0B3F5407F40F0E180002D40F060
:1031C800E6803B4A536D23F44073D4F880100B43D8
:1031D800536572E0022104F12800FFF747FB05461A
:1031E80060E72E4681E7022104F12800FFF73EFB45
:1031F800002883D0012681E7022104F12800FFF787
:1032080035FB00288BD0012689E7002104F108004E
:10321800FFF7A6FA05467DB9254A936D23F4403396
:10322800D4F8A4100B43936591E7022104F1280018
:10323800FFF71CFB0546EEE72E4688E71C4AD36AD3
:1032480043F40033D3627DB9194A536D23F4401314
:10325800D4F888100B4353658AE7012104F128004C
:10326800FFF704FB0546EEE72E4681E7104AD36ACE
:1032780043F40033D36275B90D4AD36C23F4803319
:10328800216D0B43D36480E7022104F10800FFF7A6
:1032980067FA0546EFE72E4677E7022104F1280092
:1032A800FFF7E4FA00283FF475AF012672E700BF84
:1032B80000440258002B81D00126236813F4801F94
:1032C80006D04F4A136D23F00043616F0B4313651B
:1032D800236813F0805F07D0494A136923F48043B9
:1032E800D4F8B8100B431361236813F4001F06D0F9
:1032F800434A136D23F08073E16E0B431365236813
:1033080013F0804F09D03E4B1A6922F400421A612B
:103318001A69D4F8BC100A431A612368002B06DA2C
:10332800374AD36C23F04053616D0B43D364236851
:1033380013F4000F07D0324A536D23F44003D4F836
:103348008C100B435365636813F0010F21D1636838
:1033580013F0020F26D1636813F0040F2BD16368B2
:1033680013F0080F30D1636813F0100F35D163687C
:1033780013F0200F3AD106B101263046F8BD0126D8
:103388009BE71F4AD36A43F40033D36216E72E46FD
:1033980093E7002104F10800FFF7E2F90028D6D0EE
:1033A8000646D4E7012104F10800FFF7D9F90028FF
:1033B800D1D00646CFE7022104F10800FFF7D0F983
:1033C8000028CCD00646CAE7002104F12800FFF700
:1033D8004DFA0028C7D00646C5E7012104F12800A8
:1033E800FFF744FA0028C2D00646C0E7022104F1DC
:1033F8002800FFF73BFA0028BDD00646BBE700BF10
:103408000044025810B402685369916941F00801F8
:10341800916101688A6942F010028A6101680A684C
:1034280022F001020A6001680C69284A22400A61F8
:1034380001688A6822F440428A6090F88120D2B2FA
:10344800042A0DD013F0200F0AD0D0F8842042F0BF
:103458008002C0F8842001688A6942F020028A61EB
:1034680090F88120D2B2032A0DD013F0400F0AD071
:10347800D0F8842042F00402C0F8842001688A69E8
:1034880042F040028A6113F4007F0AD0D0F8842009
:1034980042F00102C0F8842001688A6942F400728F
:1034A8008A6113F4807F0AD0D0F8843043F008038F
:1034B800C0F884300268936943F4807393610023F1
:1034C800A0F86230A0F86A3010BC704790FCFFFF8B
:1034D800C36B5B09C0680830C00803FB0000704775
:1034E8002DE9F04107460E4615461C46DDF81880C2
:1034F80000E0B4B13B685B6936EA03030CBF012303
:103508000023AB420AD1FEF771F9A0EB0800A042F4
:10351800EFD3B4F1FF3FECD0032000E00020BDE87A
:10352800F0810320FBE70000002800F0B78070B5A9
:1035380004460023836205685C4B5D4E9D4218BFBC
:10354800B54214BF0126002607D0A3F574439D4257
:1035580003D0C3680F2B00F2A3802046FFF7B8FF03
:103568002EB1544B9D4202D0082800F29B804F4A4E
:103578004F4B9D4218BF954203D003F580639D428F
:1035880002D1102800F2908094F88130F3B1022320
:1035980084F881302268136823F0010313602168DE
:1035A8008A6802F4F812A369B3F1806F14D06368D3
:1035B80013F4800F23D0E368062B20D921680B6809
:1035C80023F48073206D03430B601DE084F8803082
:1035D8002046FDF759FFDAE76368B3F5800F06D098
:1035E800002BE4D1A36BB3F1805FE0D102E0A06BC4
:1035F8000028F5D10B6843F480530B60D7E72168A6
:103608000B6823F480730B60E369A16A0B431343CF
:10361800E26B1343E16822680B439360636B626A51
:103628001343A26B1343A2691343226913436269CC
:103638001343226A134362681343E26C1343A2687C
:103648001343A26C1343A16D22680B43D3606368D4
:103658006BB92268936823F4C05343F40063936002
:103668002268936823F4C06343F4806393602268FC
:10367800136D23F001031365636813F4800F06D0FC
:103688002268D36823F00043616D0B43D3600020A8
:10369800C4F88400012384F8813070BD012070478C
:1036A8000120FAE70120F8E70120F6E700300140A1
:1036B80000380040003C00402DE9F04782B0044645
:1036C8008A4691461D46D0F80080FEF78FF894F898
:1036D8008160F6B2012E40F048810746B9F1000F2B
:1036E80018BFBAF1000F00F0418194F88030012B27
:1036F80000F04081012384F88030032384F881306E
:103708000023C4F88430C4F85CA0A4F86090A4F83E
:1037180062906366A4F86830A4F86A306367236728
:10372800A368B3F5C02F1CD02268D36823F4C02344
:1037380043F40033D360236859688F4A0A4049EA42
:1037480002025A602268136843F001031360636839
:10375800B3F5800F0BD0E3680F2B1BD8072B4DD880
:10376800ACE02268136843F400631360E3E722685F
:10377800136843F400731360EDE7E26D12681A6290
:10378800E36D0433E365B4F8622092B2013A92B271
:10379800A4F86220B4F862309BB2002B00F0C98014
:1037A80023685A6912F0020FE7D1FEF71FF8C01B11
:1037B800A84202D3B5F1FF3F01D1002DEAD120463E
:1037C800FFF720FED4F8843043F48073C4F88430C3
:1037D800012384F88130002384F880300326C5E073
:1037E800E36D1B88A8F82030E36D0233E365B4F875
:1037F80062309BB2013B9BB2A4F86230B4F86230ED
:103808009BB2002B00F095802268536913F0020FD9
:1038180015D0B4F862309BB2012BE1D9E36B002BD1
:10382800DED0E36D1B681362E36D0433E365B4F81F
:1038380062309BB2023B9BB2A4F86230DEE7FDF730
:10384800D5FFC01BA84202D3B5F1FF3F01D1002D1F
:10385800D4D12046FFF7D6FDD4F8843043F48073E2
:10386800C4F88430012384F88130002384F8803040
:1038780003267BE0B4F862309BB2012B10D9E36BCE
:1038880073B1E36D1B88A8F82030E36D0233E3655C
:10389800B4F862309BB2023B9BB2A4F862300DE0F0
:1038A800E36D1B7882F82030E36D0133E365B4F8EB
:1038B80062309BB2013B9BB2A4F86230B4F862302C
:1038C8009BB2002B35D02268536913F0020F15D034
:1038D800B4F862309BB2032BCCD9E36B402BC9D927
:1038E800E36D1B681362E36D0433E365B4F862307B
:1038F8009BB2043B9BB2A4F86230DFE7FDF776FF8A
:10390800C01BA84202D3B5F1FF3F01D1002DD5D18C
:103918002046FFF777FDD4F8843043F48073C4F869
:103928008430012384F88130002384F88030032612
:103938001CE000972B46002208212046FFF7D0FD07
:1039480028B1D4F8843043F02003C4F884302046EA
:10395800FFF758FD012384F88130002384F8803074
:10396800D4F8843013B9002600E00226304602B0AD
:10397800BDE8F0870226F9E70000FFFF70B50D4E9D
:103988000D4D761BB61006D0002455F8043B0134C3
:103998009847A642F9D1094E094D761B00F0D4F894
:1039A800B61006D0002455F8043B01349847A642C7
:1039B800F9D170BD903B0008903B0008983B000887
:1039C800903B0008830730B548D0541E002A3FD0EA
:1039D800CAB2034601E0013C3AD303F8012B9D0724
:1039E800F9D1032C2DD9CDB245EA05250F2C45EA8E
:1039F800054536D9A4F1100222F00F0C03F1200E70
:103A0800E6444FEA121C03F1100242E9045542E968
:103A1800025510327245F8D10CF1010214F00C0F66
:103A280003EB021204F00F0C13D0ACF1040323F0E3
:103A380003030433134442F8045B9342FBD10CF0B4
:103A480003042CB1CAB21C4403F8012B9C42FBD1DD
:103A580030BD64461346002CF4D1F9E703461446FA
:103A6800BFE71A46A446E0E7024B13B1024800F04C
:103A780005B8704700000000913A0008002301468D
:103A88001A46184600F01AB838B5084B084D5B1BA3
:103A98009C1007D0043B1D44013C55F80439984755
:103AA800002CF9D1BDE8384000F054B89C3B000820
:103AB800983B0008704700BF704700BF2DE9F047EA
:103AC800DFF87CA00646DAF8000098460F469146D3
:103AD800FFF7F0FF1B4B1B68D3F8484124B3656818
:103AE8001F2D26DC5EB96B1C0235DAF80000636016
:103AF80044F82570FFF7E0FF0020BDE8F08704EBED
:103B080085010123C1F88890D4F88821AB401A4375
:103B1800022EC4F88821C1F80881E4D1D4F88C2198
:103B28001343C4F88C31DEE703F5A674C3F84841A3
:103B3800D5E7DAF80000FFF7BFFF4FF0FF30DCE70A
:103B4800380400248C3B0008F8B500BFF8BC08BC5A
:103B58009E467047F8B500BFF8BC08BC9E46704743
:103B68000010000000233500D00000000000000015
:103B78008243300000000000010203040102030434
:083B88000607080910000024E3
:083B9000713A0008BD020008B3
:043B98009902000886
:103B9C000090D0030090D003010000001000000042
:103BAC0000000000FC02002464030024CC03002469
:103BBC0000000000000000000000000000000000F9
:103BCC0000000000000000000000000000000000E9
:103BDC0000000000000000000000000000000000D9
:103BEC0000000000000000000000000000000000C9
:103BFC0000000000000000000000000000000000B9
:103C0C0000000000000000000000000000000000A8
:103C1C000000000000000000000000000000000098
:103C2C000000000000000000000000000000000088
:103C3C000000000000000000000000000000000078
:103C4C000000000000000000010000000000000067
:103C5C000E33CDAB34126DE6ECDE05000B0000002C
:103C6C000000000000000000000000000000000048
:103C7C000000000000000000000000000000000038
:103C8C000000000000000000000000000000000028
:103C9C000000000000000000000000000000000018
:0C3FCC0000000000000000006C05002454
:04000005080016D900
:00000001FF
