:020000040800F2
:1000000000000824F1140008DD130008DF130008C5
:10001000E1130008E3130008E513000800000000E6
:10002000000000000000000000000000E7130008CE
:10003000E913000800000000EB130008ED130008AE
:100040004515000845150008451500084515000828
:100050004515000845150008451500084515000818
:100060004515000845150008451500084515000808
:1000700045150008451500084515000845150008F8
:1000800045150008451500084515000845150008E8
:1000900045150008451500084515000845150008D8
:1000A00045150008451500084515000845150008C8
:1000B00045150008451500084515000845150008B8
:1000C00045150008451500084515000845150008A8
:1000D0004515000845150008451500084515000898
:1000E00045150008451500080000000045150008EA
:1000F0004515000845150008451500084515000878
:100100004515000845150008451500084515000867
:100110004515000845150008451500084515000857
:100120004515000845150008451500084515000847
:100130004515000845150008451500084515000837
:1001400000000000000000000000000000000000AF
:100150004515000845150008451500084515000817
:100160004515000845150008451500084515000807
:100170004515000845150008451500080000000059
:1001800045150008451500084515000845150008E7
:1001900045150008451500084515000845150008D7
:1001A00045150008451500084515000845150008C7
:1001B00045150008451500084515000845150008B7
:1001C00045150008451500084515000845150008A7
:1001D0004515000845150008451500084515000897
:1001E0004515000845150008451500084515000887
:1001F0004515000845150008451500084515000877
:100200004515000845150008451500084515000866
:100210004515000845150008451500084515000856
:1002200045150008451500084515000800000000A8
:100230004515000845150008000000004515000898
:100240004515000845150008451500084515000826
:100250004515000845150008451500084515000816
:100260004515000845150008451500084515000806
:100270004515000845150008451500080000000058
:100280004515000845150008451500080000000048
:08029000000000004515000804
:1002980010B5054C237833B9044B13B10448AFF3B8
:1002A80000800123237010BD3C04002400000000DE
:1002B8004C27000808B5034B1BB103490348AFF3AB
:1002C800008008BD00000000400400244C270008FE
:1002D80070B54FF0FF0C4CF4E06C1CEA11541DBFD4
:1002E8001CEA135594EA0C0F95EA0C0F00F0DEF89F
:1002F8002C4481EA030621EA4C5123EA4C5350EA84
:10030800013518BF52EA033541F4801143F48013D4
:1003180038D0A0FB02CE4FF00005E1FB02E506F065
:100328000042E0FB03E54FF00006E1FB03569CF0BA
:10033800000F18BF4EF0010EA4F1FF04B6F5007FC0
:1003480064F5407404D25FEA4E0E6D4146EB060632
:1003580042EAC62141EA55514FEAC52040EA5E50BB
:100368004FEACE2EB4F1FD0C88BFBCF5E06F1ED865
:10037800BEF1004F08BF5FEA500E50F1000041EB9C
:10038800045170BD06F0004646EA010140EA020049
:1003980081EA0301B4EB5C04C2BFD4EB0C0541EA6B
:1003A800045170BD41F480114FF0000E013C00F380
:1003B800AB8014F1360FDEBF002001F0004170BDA4
:1003C800C4F10004203C35DA0C341BDC04F11404BD
:1003D800C4F1200500FA05F320FA04F001FA05F249
:1003E80040EA020001F0004221F0004110EBD37016
:1003F80021FA04F642EB06015EEA430E08BF20EA42
:10040800D37070BDC4F10C04C4F1200500FA04F3E4
:1004180020FA05F001FA04F240EA020001F0004176
:1004280010EBD37041F100015EEA430E08BF20EAE9
:10043800D37070BDC4F1200500FA05F24EEA020E31
:1004480020FA04F301FA05F243EA020321FA04F060
:1004580001F0004121FA04F220EA020000EBD37017
:100468005EEA430E08BF20EAD37070BD94F0000F17
:100478000FD101F00046400041EB010111F4801F4B
:1004880008BF013CF7D041EA060195F0000F18BFFC
:10049800704703F00046520043EB030313F4801F38
:1004A80008BF013DF7D043EA0603704794EA0C0FF2
:1004B8000CEA135518BF95EA0C0F0CD050EA410608
:1004C80018BF52EA4306D1D181EA030101F0004185
:1004D8004FF0000070BD50EA410606BF10461946AD
:1004E80052EA430619D094EA0C0F02D150EA0136B9
:1004F80013D195EA0C0F05D152EA03361CBF1046FA
:1005080019460AD181EA030101F0004141F0FE4198
:1005180041F470014FF0000070BD41F0FE4141F41C
:10052800780170BD81F0004102E000BF83F0004314
:1005380030B54FEA41044FEA430594EA050F08BF76
:1005480090EA020F1FBF54EA000C55EA020C7FEA3A
:10055800645C7FEA655C00F0E2804FEA5454D4EBB7
:100568005555B8BF6D420CDD2C4480EA020281EA81
:10057800030382EA000083EA010180EA020281EAB9
:100588000303362D88BF30BD11F0004F4FEA01310B
:100598004FF4801C4CEA113102D0404261EB41011A
:1005A80013F0004F4FEA03334CEA133302D05242A0
:1005B80063EB430394EA050F00F0A780A4F101045C
:1005C800D5F1200E0DDB02FA0EFC22FA05F2801896
:1005D80041F1000103FA0EF2801843FA05F359417C
:1005E8000EE0A5F120050EF1200E012A03FA0EFCFB
:1005F80028BF4CF0020C43FA05F3C01851EBE37125
:1006080001F0004507D54FF0000EDCF1000C7EEB41
:1006180000006EEB0101B1F5801F1BD3B1F5001F7F
:100628000CD349085FEA30004FEA3C0C04F101049E
:100638004FEA445212F5800F80F09A80BCF1004FC7
:1006480008BF5FEA500C50F1000041EB045141EA49
:10065800050130BD5FEA4C0C404141EB0101013C12
:1006680028BFB1F5801FE9D291F0000F04BF014601
:100678000020B1FA81F308BF2033A3F10B03B3F1D3
:1006880020020CDA0C3208DD02F1140CC2F10C0263
:1006980001FA0CF021FA02F10CE002F11402D8BFC1
:1006A800C2F1200C01FA02F120FA0CFCDCBF41EA8D
:1006B8000C019040E41AA2BF01EB0451294330BD5C
:1006C8006FEA04041F3C1CDA0C340EDC04F1140439
:1006D800C4F1200220FA04F001FA02F340EA030010
:1006E80021FA04F345EA030130BDC4F10C04C4F156
:1006F800200220FA02F001FA04F340EA0300294636
:1007080030BD21FA04F0294630BD94F0000F83F47F
:10071800801306BF81F480110134013D4EE77FEA62
:10072800645C18BF7FEA655C29D094EA050F08BFAE
:1007380090EA020F05D054EA000C04BF194610468F
:1007480030BD91EA030F1EBF0021002030BD5FEAD3
:10075800545C05D14000494128BF41F0004130BDFB
:1007680014F580043CBF01F5801130BD01F000454F
:1007780045F0FE4141F470014FF0000030BD7FEAC2
:10078800645C1ABF194610467FEA655C1CBF0B46BD
:10079800024650EA013406BF52EA033591EA030FD4
:1007A80041F4002130BD00BF90F0000F04BF0021CC
:1007B800704730B54FF4806404F132044FF00005FF
:1007C8004FF0000150E700BF90F0000F04BF002178
:1007D800704730B54FF4806404F1320410F00045DE
:1007E80048BF40424FF000013EE700BF42004FEAD9
:1007F800E2014FEA31014FEA02701FBF12F07F4356
:1008080093F07F4F81F06051704732F07F4208BF0C
:10081800704793F07F4F04BF41F40021704730B513
:100828004FF4607401F0004521F000411CE700BF5F
:1008380050EA010208BF704730B54FF000050AE0E2
:1008480050EA010208BF704730B511F0004502D5E3
:10085800404261EB41014FF4806404F132045FEAE5
:10086800915C3FF4D8AE4FF003025FEADC0C18BF8E
:1008780003325FEADC0C18BF033202EBDC02C2F180
:10088800200300FA03FC20FA02F001FA03FE40EA12
:100898000E0021FA02F11444BDE600BF4A0011D24D
:1008A80012F5001211D20DD56FF47873B3EB6252C2
:1008B8000ED44FEAC12343F0004343EA505323FACE
:1008C80002F070474FF00000704750EA013002D143
:1008D8004FF0FF3070474FF00000704780F0004045
:1008E80002E000BF81F0004142001FBF5FEA410300
:1008F80092EA030F7FEA226C7FEA236C6AD04FEA00
:100908001262D2EB1363C1BFD21841404840414044
:10091800B8BF5B42192B88BF704710F0004F40F4F6
:10092800000020F07F4018BF404211F0004F41F412
:10093800000121F07F4118BF494292EA030F3FD0DE
:10094800A2F1010241FA03FC10EB0C00C3F12003F1
:1009580001FA03F100F0004302D5494260EB400080
:10096800B0F5000F13D3B0F1807F06D340084FEAEB
:10097800310102F10102FE2A51D2B1F1004F40EBE0
:10098800C25008BF20F0010040EA03007047490048
:1009980040EB0000013A28BFB0F5000FEDD2B0FAE5
:1009A80080FCACF1080CB2EB0C0200FA0CF0AABF08
:1009B80000EBC25052421843BCBFD04018437047A6
:1009C80092F0000F81F4000106BF80F400000132AC
:1009D800013BB5E74FEA41037FEA226C18BF7FEA83
:1009E800236C21D092EA030F04D092F0000F08BFC5
:1009F8000846704790EA010F1CBF0020704712F0AC
:100A08007F4F04D1400028BF40F00040704712F1EA
:100A180000723CBF00F50000704700F0004343F04F
:100A2800FE4040F4000070477FEA226216BF084685
:100A38007FEA23630146420206BF5FEA412390EA48
:100A4800010F40F4800070474FF0000304E000BF3E
:100A580010F0004348BF40425FEA000C08BF7047EF
:100A680043F0964301464FF000001CE050EA0102B3
:100A780008BF70474FF000030AE000BF50EA0102C8
:100A880008BF704711F0004302D5404261EB4101B5
:100A98005FEA010C02BF84460146002043F0B643DA
:100AA80008BFA3F18053A3F50003BCFA8CF2083AFF
:100AB800A3EBC25310DB01FA02FC634400FA02FC08
:100AC800C2F12002BCF1004F20FA02F243EB02000F
:100AD80008BF20F00100704702F1200201FA02FC71
:100AE800C2F1200250EA4C0021FA02F243EB020064
:100AF80008BF20EADC7070474FF0FF0C1CEAD052A8
:100B08001EBF1CEAD15392EA0C0F93EA0C0F6FD068
:100B18001A4480EA010C400218BF5FEA41211ED046
:100B28004FF0006343EA501043EA5111A0FB013132
:100B38000CF00040B1F5000F3EBF490041EAD37107
:100B48005B0040EA010062F17F02FD2A1DD8B3F183
:100B5800004F40EBC25008BF20F00100704790F0F2
:100B6800000F0CF0004C08BF49024CEA502040EA44
:100B780051207F3AC2BFD2F1FF0340EAC25070470A
:100B880040F400004FF00003013A5DDC12F1190F48
:100B9800DCBF00F000407047C2F10002410021FABA
:100BA80002F1C2F1200200FA02FC5FEA310040F1D2
:100BB800000053EA4C0308BF20EADC70704792F04B
:100BC800000F00F0004C02BF400010F4000F013A83
:100BD800F9D040EA0C0093F0000F01F0004C02BF7E
:100BE800490011F4000F013BF9D041EA0C018FE7ED
:100BF8000CEAD15392EA0C0F18BF93EA0C0F0AD0F3
:100C080030F0004C18BF31F0004CD8D180EA010018
:100C180000F00040704790F0000F17BF90F0004FB1
:100C2800084691F0000F91F0004F14D092EA0C0F93
:100C380001D142020FD193EA0C0F03D14B0218BF26
:100C4800084608D180EA010000F0004040F0FE406C
:100C580040F40000704740F0FE4040F44000704708
:100C68004FF0FF0C1CEAD0521EBF1CEAD15392EA87
:100C78000C0F93EA0C0F69D0A2EB030280EA010C77
:100C880049024FEA402037D04FF0805343EA111110
:100C980043EA10130CF000408B4238BF5B0042F16E
:100CA8007D024FF4000C8B4224BF5B1A40EA0C0013
:100CB800B3EB510F24BFA3EB510340EA5C00B3EB45
:100CC800910F24BFA3EB910340EA9C00B3EBD10F33
:100CD80024BFA3EBD10340EADC001B0118BF5FEA85
:100CE8001C1CE0D1FD2A3FF650AF8B4240EBC250AE
:100CF80008BF20F0010070470CF0004C4CEA50206F
:100D08007F32C2BFD2F1FF0340EAC250704740F4BD
:100D180000004FF00003013A37E792F0000F00F0AF
:100D2800004C02BF400010F4000F013AF9D040EA2D
:100D38000C0093F0000F01F0004C02BF490011F4C1
:100D4800000F013BF9D041EA0C0195E70CEAD153B9
:100D580092EA0C0F08D142027FF47DAF93EA0C0FA0
:100D68007FF470AF084676E793EA0C0F04D14B0284
:100D78003FF44CAF08466EE730F0004C18BF31F036
:100D8800004CCAD130F000427FF45CAF31F0004330
:100D98007FF43CAF5FE700BF42000ED2B2F1FE4FD6
:100DA8000BD34FF09E03B3EB126209D44FEA002332
:100DB80043F0004323FA02F070474FF000007047F9
:100DC80012F1610F01D1420202D14FF0FF3070479A
:100DD8004FF00000704700BF2DE9F0418AB00024B1
:100DE80005940694079408940994344BD3F8E020AA
:100DF80042F08002C3F8E020D3F8E02002F080023D
:100E08000192019AD3F8E02042F00802C3F8E020EA
:100E1800D3F8E02002F008020292029AD3F8E02008
:100E280042F00402C3F8E020D3F8E02002F0040204
:100E38000392039AD3F8E02042F00102C3F8E020BD
:100E4800D3F8E03003F001030493049BDFF87080CB
:100E580022464FF46041404600F0AEFD194F22464D
:100E68004FF47071384600F0A7FD174E22464FF434
:100E78004071304600F0A0FD4FF460430593012512
:100E880006950794089405A9404600F081FC4FF4A4
:100E98007073059306950794089405A9384600F0E1
:100EA80077FC4FF44073059306950794089405A9B9
:100EB800304600F06DFC0AB0BDE8F08100440258ED
:100EC800000C0258000802580000025810B584B0FF
:100ED8000024009401940294039400F00FFC012371
:100EE8008DF800308DF8014001941F228DF80820FC
:100EF80087228DF809208DF80A408DF80B408DF86F
:100F08000C308DF80D308DF80E408DF80F40684686
:100F180000F012FC042000F0FFFB04B010BD72B614
:100F2800FEE7000000B59DB04C22002109A801F0A1
:100F380047FB2022002101A801F042FB022000F01B
:100F480041FD00230093264B9A6942F440429A617E
:100F58009B6903F440430093224BDA6A42F0010292
:100F6800DA62DB6A03F001030093009B1C4B9B6968
:100F780013F4005FFAD00223099301220C92402255
:100F88000D92129300221392042114913C21159181
:100F98001693179318930C2319931A921B9209A866
:100FA80000F03AFDB8B93F230193032302930023CD
:100FB8000393082304934023059306934FF4806218
:100FC8000792089304210DEB010001F08BF920B979
:100FD8001DB05DF804FBFFF7A2FFFFF7A0FF00BFFD
:100FE800004802580004005800B583B0FFF76EFFB0
:100FF80000F0CEFAFFF796FFFFF7EEFE00F062F87A
:101008004FF400730193002000901DA3D3E900233F
:1010180000F086F90A2000F0FBFA4FF440730193C0
:101028005A23009318A3D3E90023012000F078F98C
:101038000A2000F0EDFA4FF480730193B423009373
:1010480013A3D3E90023022000F06AF90A2000F074
:10105800DFFA40F2FF3301934FF4877300930EA336
:10106800D3E90023032000F05BF90A2000F0D0FA4E
:101078004FF47A7000F0CCFAFAE700BFAFF30080C3
:101088000000000080842E410000000080843E4162
:1010980000000000D012534100000000D01263414C
:1010A80070B182B007E0019B01330193019B132BC0
:1010B800F9D9013810B100230193F7E702B070475E
:1010C8007047000038B5264D01224FF400712846BC
:1010D80000F072FC234C00224FF40071204600F00F
:1010E8006BFC00224FF48071284600F065FC00225A
:1010F8004FF48071204600F05FFC002280212046DA
:1011080000F05AFC00224021204600F055FC04F56E
:10111800806400224FF40041204600F04DFC00227C
:101128004FF40051204600F047FC00224FF4804164
:10113800204600F041FC0320FFF7B2FF01224FF4E4
:101148008041204600F038FC4FF4FA70FFF7A8FF02
:1011580000224FF48041204600F02EFC38BD00BF2D
:10116800000002580008025810B50D4C00224FF438
:101178008071204600F020FC0620FFF791FF012235
:101188004FF48071204600F017FC0C20FFF788FF11
:1011980000224FF48071204600F00EFC10BD00BF05
:1011A800000002582DE9F04104460F4690460022FF
:1011B8004FF40071364800F0FFFB00224FF4007135
:1011C800344800F0F9FB00250FE001224FF480714C
:1011D8002F4800F0F1FB01224FF400712C4800F079
:1011E800EBFB6400E4B20135EDB2072D0FD8002205
:1011F8004FF40071264800F0DFFB14F0800FE4D1B3
:1012080000224FF48071224800F0D6FBE3E7002269
:101218004FF400711E4800F0CFFB002629E00022A1
:101228004FF480711A4800F0C7FB01224FF4007197
:10123800174800F0C1FB6D00EDB20134E4B2072C91
:101248000FD800224FF40071114800F0B5FB15F0DB
:10125800800FE4D001224FF480710D4800F0ACFB00
:10126800E3E700224FF40071094800F0A5FB0136BE
:10127800F6B2BE4203D218F806500024DFE7012276
:101288004FF40071034800F097FBBDE8F08100BF00
:10129800000802580000025810B5144608A3D3E904
:1012A8000023FFF715F8FFF7F9FA030E2370C0F3D0
:1012B80007436370C0F30723A370E07010BD00BF3D
:1012C80095D626E80B2E214010B50C46FFF77CFA80
:1012D80005A3D3E90023FEF7FBFFFFF7DFFAC0F30E
:1012E80007232370607010BD176CC1166CC146408F
:1012F8004B78C0F3012213434B708870704700008D
:1013080000B583B0054B019301AB1A1801210020E9
:10131800FFF748FF03B05DF804FB00BF10204080D2
:1013280030B587B014461D46204A1368ADF80C3016
:101338001B0C8DF80E305368ADF808301B0C8DF877
:101348000A309368ADF804301B0C8DF80630FFF7AF
:10135800D7FF01AA03210120FFF724FF02AA0321D6
:101368000846FFF71FFF03A9BDF82C00FFF7C0FFD1
:1013780003AA03210620FFF715FF04A9BDF82800DA
:10138800FFF7A2FF04AA02210520FFF70BFF05AA19
:1013980020462946FFF780FF05AA04210846FFF7E3
:1013A80001FFFFF7E1FE07B030BD00BF642700086A
:1013B80082B0074BD3F8F42042F00202C3F8F420BD
:1013C800D3F8F43003F002030193019B02B0704795
:1013D80000440258FEE7FEE7FEE7FEE7FEE7704737
:1013E8007047704708B500F001F908BD2D4B1B6820
:1013F80003F00F03062B06D82A4A136823F00F03BD
:1014080043F007031360284B1A6842F001021A6080
:1014180000221A611968254A0A401A60214B1B6884
:1014280013F0080F06D01F4A136823F00F0343F088
:10143800070313601C4B00229A61DA611A621C4987
:1014480099621C49D9621C4919635A639963DA6322
:1014580019645A64196821F4802119601A66174BB7
:101468001A68174B1340B3F1005F03D2154B0122E2
:10147800C3F808210C4BD3F8D43013F4805F10D193
:10148800094BD3F8D42042F48052C3F8D4200E4A32
:1014980043F2D2011160D3F8D42022F48052C3F869
:1014A800D420704700200052004402587FEDF6EA2D
:1014B800000202020000FF01800201010010005C2E
:1014C8000000FFFF0080005100400052054AD36829
:1014D80043F00203D360034B5B6813F4005FFAD058
:1014E800704700BF00480258DFF838D0FFF7EEFF1A
:1014F800FFF77CFF0C480D490D4A002302E0D45841
:10150800C4500433C4188C42F9D30A4A0A4C002345
:1015180001E013600432A242FBD301F02DF8FFF77B
:1015280063FD704700000824000000243C040024E8
:10153800942700083C04002460040024FEE700000F
:10154800104B1B780BB90120704710B504464FF4B7
:101558007A70B0FBF3F30C4A1068B0FBF3F000F0BC
:10156800B9F868B90F2C01D901200AE000222146F8
:101578004FF0FF3000F078F8044B1C60002000E0CA
:10158800012010BD08000024000000240C000024E5
:1015980010B5032000F056F800F098FD0F498B694C
:1015A800C3F303230E4AD35C03F01F03D8408B69AF
:1015B80003F00F03D35C03F01F0320FA03F3094A77
:1015C8001360094B18600F20FFF7BAFF10B1012410
:1015D800204610BD0446FFF7EBFEF9E70044025829
:1015E800742700080400002400000024034B1B7823
:1015F800034A11680B441360704700BF08000024B9
:1016080058040024014B1868704700BF5804002490
:1016180038B50446FFF7F6FF0546B4F1FF3F02D0A0
:10162800044B1B781C44FFF7EDFF401BA042FAD384
:1016380038BD00BF08000024014B1868000C704733
:101648000010005C0649CB6823F4E0631B041B0C04
:10165800000200F4E0600343024A1A43CA6070477C
:1016680000ED00E00000FA0500B5174BDB68C3F396
:101678000223C3F1070CBCF1040F28BF4FF0040C80
:1016880003F1040EBEF1060F14D9033B4FF0FF3EE1
:101698000EFA0CFC21EA0C0199400EFA03F322EA37
:1016A80003031943002807DB0901C9B2074B195482
:1016B8005DF804FB0023E9E700F00F000901C9B257
:1016C800034B1954F4E700BF00ED00E000E400E02C
:1016D80014ED00E00138B0F1807F0BD24FF0E02329
:1016E8005861054AF02182F82310002098610722EA
:1016F8001A6170470120704700ED00E0BFF35F8F6B
:10170800044B5A6A22F480325A620022C3F89420A9
:10171800704700BF00ED00E040F00100054BC3F842
:1017280094005A6A42F480325A62BFF34F8FBFF373
:101738006F8F704700ED00E04378144AC2F8983084
:10174800D2F8A03023F00103C2F8A0304368C2F8F1
:101758009C30017BC37A1B0643EA0173817A43EA12
:10176800C143417B43EA8143817B43EA4143C17BD7
:1017780043EA0143417A43EA0123017A43EA4103F8
:1017880001780B43C2F8A030704700BF00ED00E0BD
:1017980070B582B000236EE085685E000324B44013
:1017A80025EA0405CC68B4402C438460446824EAE4
:1017B8000C0C4C68C4F300149C4044EA0C044460CC
:1017C8006CE0DD08083550F8256003F007044FEA9F
:1017D800840C0F2404FA0CF426EA040E0C6904FAAB
:1017E8000CF444EA0E0440F825406FE0092400E0B8
:1017F800002404FA0EF42C430CF1020C6B4D45F84E
:101808002C404FF0B0442568D44325EA0206D1F8AD
:1018180004C01CF4801F01D042EA05064FF0B04511
:101828002E606D6804EA0506D1F804C01CF4001F98
:1018380001D042EA05064FF0B0456E60D5F88450F5
:1018480004EA0506D1F804C01CF4003F01D042EABE
:1018580005064FF0B045C5F88460D5F880502C4097
:101868004E6816F4803F01D042EA05044FF0B042BA
:10187800C2F8804001330A6832FA03F400F093801A
:101888004FF0010C0CFA03FC1CEA0202F2D04C687F
:1018980004F00304013C012C7FF67EAF4C6804F091
:1018A8000304032C0CD0C4685D004FF0030C0CFA41
:1018B80005FC24EA0C0C8C68AC4044EA0C04C460B7
:1018C8004C6804F00304022C3FF47BAF04684FEA31
:1018D800430E4FF0030C0CFA0EFC24EA0C0C4C6877
:1018E80004F0030404FA0EF444EA0C0404604C689F
:1018F80014F4403FBED02E4CD4F8F45045F0020505
:10190800C4F8F450D4F8F44004F002040194019CA3
:101918004FEA930C0CF10205244C54F8255003F0BF
:1019280003044FEA840E0F2404FA0EF425EA040592
:10193800204CA0423FF45CAF04F58064A04222D062
:1019480004F58064A04220D004F58064A0421ED033
:1019580004F58064A0421CD004F58064A0421AD02B
:1019680004F58064A04218D004F58064A04216D023
:1019780004F58064A04214D004F58064A0423FF4CA
:1019880035AF0A2435E7012433E7022431E703247D
:101998002FE704242DE705242BE7062429E707244D
:1019A80027E7082425E702B070BD00BF00040058EF
:1019B80000440258000002580AB1816170470904C6
:1019C80081617047134BDB6813F0040F07D1114B8B
:1019D800DB6803F0070383421AD00120704710B573
:1019E8000C4AD36823F007031843D060FFF70AFEB8
:1019F8000446084B5B6813F4005F07D1FFF702FE4B
:101A0800001BB0F57A7FF4D9012000E0002010BD5A
:101A18000020704700480258002800F0398338B584
:101A28000446036813F0010F25D0944A136903F0A4
:101A38003803926A102B15D0182B0FD06368B3F5B2
:101A4800803F3FD0002B53D18C4B1A6822F4803250
:101A58001A601A6822F480221A6038E002F0030241
:101A6800022AEBD1854B1B6813F4003F03D063684F
:101A7800002B00F00F83236813F0020F00F0A18001
:101A88007E4A1369926A13F038035AD0182B55D03E
:101A9800E368002B00F0DE8078490A6822F019021A
:101AA80013430B60FFF7AEFD0546744B1B6813F03C
:101AB800040F40F0AD80FFF7A5FD401B0228F4D9C4
:101AC8000320EEE26D4A136843F4803313606368C1
:101AD8002BB3FFF797FD0546684B1B6813F4003FCF
:101AE800C9D1FFF78FFD401B6428F5D90320D8E240
:101AF800B3F5A02F09D0614B1A6822F480321A601E
:101B08001A6822F480221A60E1E75C4B1A6842F4F2
:101B180080221A601A6842F480321A60D7E7FFF709
:101B280071FD0546554B1B6813F4003FA3D0FFF722
:101B380069FD401B6428F5D90320B2E212F0030FB7
:101B4800A6D14E4B1B6813F0040F03D0E368002B9B
:101B580000F0A282494A136823F01903E1680B4395
:101B68001360FFF74FFD0546444B1B6813F0040F45
:101B780006D1FFF747FD401B0228F5D9032090E264
:101B8800FFF75AFD41F20303984212D82269402A0E
:101B980007D03A494B6823F47C3343EA02334B605D
:101BA8000FE0364A536823F47C3343F40033536020
:101BB80007E0324A536823F0FE43216943EA016390
:101BC8005360236813F0100F00F088802B4A1369C4
:101BD80003F03803926A082B56D0182B50D0E369CB
:101BE800002B00F0B880254A136843F08003136087
:101BF800FFF708FD0546214B1B6813F4807F40F072
:101C08008880FFF7FFFC401B0228F4D9032048E234
:101C1800FFF712FD41F20303984212D82269402AC5
:101C280007D016494B6823F47C3343EA02334B60F0
:101C3800C7E7124A536823F47C3343F400335360F4
:101C4800BFE70E4A536823F0FE43216943EA016364
:101C58005360B6E7094A136823F001031360FFF7DE
:101C6800D1FC0546054B1B6813F0040FA9D0FFF7FC
:101C7800C9FC401B0228F5D9032012E2004402588F
:101C880002F00302012AAAD1A14B1B6813F4807F3A
:101C980003D0E369802B40F00182FFF7CDFC41F2CD
:101CA8000303984212D8226A202A07D098494B6821
:101CB80023F0F84343EA82634B600FE0944A536889
:101CC80023F0F84343F08043536007E0904AD36819
:101CD80023F07C53216A43EA0163D360236813F03D
:101CE800080F60D06369002B49D0894A536F43F0CD
:101CF80001035367FFF786FC0546854B5B6F13F0BE
:101D0800020F50D1FFF77EFC401B0228F5D90320B3
:101D1800C7E1FFF791FC41F20303984212D8226A07
:101D2800202A07D07A494B6823F0F84343EA8263B4
:101D38004B60D3E7764A536823F0F84343F0804377
:101D48005360CBE7724AD36823F07C53216A43EA95
:101D58000163D360C2E76E4A136823F080031360FF
:101D6800FFF750FC05466A4B1B6813F4807FB5D01B
:101D7800FFF748FC401B0228F5D9032091E1644A8B
:101D8800536F23F001035367FFF73CFC0546604B94
:101D98005B6F13F0020F06D0FFF734FC401B0228DC
:101DA800F5D903207DE1236813F0200F29D0A3691A
:101DB8009BB1574A136843F480531360FFF722FC22
:101DC8000546534B1B6813F4005F1AD1FFF71AFC42
:101DD800401B0228F5D9032063E14D4A136823F418
:101DE80080531360FFF70EFC0546494B1B6813F43C
:101DF800005F06D0FFF706FC401B0228F5D9032038
:101E08004FE1236813F0040F21D1636A002B00F01F
:101E180047813F4A126902F03802182A00F0EE8022
:101E2800022B79D03A4A136823F080731360FFF7C6
:101E3800E9FB0446364B1B6813F0007F00F0DC809A
:101E4800FFF7E0FB001B0228F4D9032029E1314AFF
:101E5800136843F480731360FFF7D4FB05462D4BDA
:101E68001B6813F4807F06D1FFF7CCFB401B642866
:101E7800F5D9032015E1A368012B0AD00BBB244B2D
:101E88001A6F22F001021A671A6F22F004021A6709
:101E980004E01F4A136F43F001031367A36833B3C9
:101EA800FFF7B0FB05461A4B1B6F13F0020FACD1BE
:101EB800FFF7A8FB401B41F288339842F3D903206F
:101EC800EFE0052B09D0124B1A6F22F001021A67B6
:101ED8001A6F22F004021A67E0E70D4B1A6F42F0FE
:101EE80004021A671A6F42F001021A67D6E7FFF771
:101EF80089FB0546064B1B6F13F0020F85D0FFF7D1
:101F080081FB401B41F288339842F3D90320C8E093
:101F18000044025800480258694A136823F0807345
:101F28001360FFF76FFB0546654B1B6813F0007FD6
:101F380006D0FFF767FB401B0228F5D90320B0E065
:101F48005F4B996A5F4A0A40A16AE06A41EA001158
:101F58000A439A62226B013AC2F30802616B0139A3
:101F6800490289B20A43A16B0139090401F4FE014F
:101F78000A43E16B0139090601F0FE410A431A637D
:101F8800DA6A22F00102DA62596B4F4A0A40A16C00
:101F980042EAC1025A63DA6A22F00C02216C0A434F
:101FA800DA62DA6A22F00202616C0A43DA62DA6AF9
:101FB80042F48032DA62DA6A42F40032DA62DA6AC9
:101FC80042F48022DA62DA6A42F00102DA621A68BE
:101FD80042F080721A60FFF715FB0446384B1B6805
:101FE80013F0007F06D1FFF70DFB001B0228F5D97F
:101FF800032056E0002054E0002052E0304A916A65
:10200800106B012B4ED001F00303A26A93424BD10F
:10201800C1F30511E36A994248D1C0F30802236B62
:10202800013B9A4244D1C0F34622636B013B9A427A
:1020380040D1C0F30642A36B013B9A423CD1C0F3A6
:102048000660E36B013B984238D11D4B5B6BC3F3D1
:10205800CC03A26C9A4201D1002022E0184AD36A2C
:1020680023F00103D362FFF7CDFA0546FFF7CAFA5A
:10207800A842FBD0124A516B134B0B40A16C43EAA8
:10208800C1035363D36A43F00103D362002008E01D
:1020980001207047012004E0012002E0012000E057
:1020A800002038BD0120FCE70120FAE70120F8E70D
:1020B8000120F6E70120F4E70120F2E70120F0E72C
:1020C800004402580CFCFFFF0700FFFFF8B57E4BE9
:1020D8001B6903F03803102B00F0F280182B10D086
:1020E80013B17A4C2046F8BD774B1B6813F0200FCC
:1020F80000F0E880744B1868C0F3C100744CC44009
:10210800F0E7714B9D6A05F003059C6AC4F305145A
:10211800D86A00F001005B6BC3F3CC0303FB00F04B
:10212800FEF792FC0646002CDCD0012D76D0022D5D
:1021380000F0A4800DB32046FEF786FC01466548F2
:10214800FEF78EFD0446604B186BC0F30800FEF7DF
:102158007BFC05464FF064513046FEF7CDFC014646
:102168002846FEF7C1FB4FF07E51FEF7BDFB014646
:102178002046FEF7C1FC044671E0534B1B6813F080
:10218800200F29D0504F3B68C3F3C1035048D840B3
:10219800FEF75AFC05462046FEF756FC014628463F
:1021A800FEF75EFD0446386BC0F30800FEF74CFCF2
:1021B80005464FF064513046FEF79EFC014628461E
:1021C800FEF792FB4FF07E51FEF78EFB014620464C
:1021D800FEF792FC044642E02046FEF735FC014635
:1021E8003D48FEF73DFD0446374B186BC0F3080029
:1021F800FEF72AFC05464FF064513046FEF77CFC9A
:1022080001462846FEF770FB4FF07E51FEF76CFB47
:1022180001462046FEF770FC044620E02046FEF703
:1022280013FC01462B48FEF71BFD0446264B186B92
:10223800C0F30800FEF708FC05464FF0645130462D
:10224800FEF75AFC01462846FEF74EFB4FF07E513A
:10225800FEF74AFB01462046FEF74EFC04461A4BA1
:102268001B6BC3F34623581CFEF7EEFB01462046C2
:10227800FEF7F6FCFEF790FD044633E72046FEF72E
:10228800E3FB01461548FEF7EBFC04460E4B186BC2
:10229800C0F30800FEF7D8FB05464FF064513046FE
:1022A800FEF72AFC01462846FEF71EFB4FF07E513A
:1022B800FEF71AFB01462046FEF71EFC0446CEE751
:1022C800074C0FE7024C0DE70044025800093D0097
:1022D8000090D0030024744A0024744C20BCBE4BE8
:1022E80040787D01002800F0328170B50D46044623
:1022F8009B4B1B6803F00F038B420BD2984A136861
:1023080023F00F030B431360136803F00F038B4292
:1023180040F01F81236813F0040F0CD02269914B01
:102328009B6903F070039A4205D98E498B6923F0A3
:1023380070031A438A61236813F0080F0CD062698E
:10234800884BDB6903F070039A4205D98549CB694C
:1023580023F070031A43CA61236813F0100F0CD0DE
:10236800A269804BDB6903F4E0639A4205D97D4991
:10237800CB6923F4E0631A43CA61236813F0200F82
:102388000CD0E269774B1B6A03F070039A4205D9B7
:1023980074490B6A23F070031A430A62236813F026
:1023A800020F0CD0E2686F4B9B6903F00F039A424F
:1023B80005D96C498B6923F00F031A438A61236896
:1023C80013F0010F41D0674A936923F47063A16841
:1023D8000B4393616368022B0AD0032B27D0012B90
:1023E8002CD0604A126812F0040F06D10120ADE02B
:1023F800126812F4003F00F0AE805A490A6922F0D0
:10240800070213430B61FFF7FDF80646554B1B699E
:1024180003F038036268B3EBC20F16D0FFF7F2F887
:10242800801B41F288339842F0D903208EE04D4A50
:10243800126812F0007FE0D1012087E0494A126853
:1024480012F4807FD9D1012080E0236813F0020FB5
:102458000CD0E268434B9B6903F00F039A4205D204
:1024680040498B6923F00F031A438A613C4B1B6870
:1024780003F00F03AB420AD9394A136823F00F035C
:102488002B431360136803F00F03AB4265D1236835
:1024980013F0040F0CD02269324B9B6903F07003D0
:1024A8009A4205D22F498B6923F070031A438A6137
:1024B800236813F0080F0CD062692A4BDB6903F01C
:1024C80070039A4205D22749CB6923F070031A4357
:1024D800CA61236813F0100F0CD0A269214BDB6985
:1024E80003F4E0639A4205D21E49CB6923F4E06302
:1024F8001A43CA61236813F0200F0CD0E269194B04
:102508001B6A03F070039A4205D216490B6A23F03E
:1025180070031A430A62FFF7D9FD12498B69C3F3A6
:102528000323114AD35C03F01F03D8408B6903F0DF
:102538000F03D35C03F01F0320FA03F30B4A136065
:102548000B4B18600B4B1868FEF7FAFF70BD0120A3
:1025580070470120FAE70120F8E70120F6E700BFFD
:102568000020005200440258742700080400002488
:10257800000000240C00002470B50D4E0D4D761B94
:10258800B61006D0002455F8043B01349847A642FB
:10259800F9D1094E094D761B00F0D4F8B61006D0D3
:1025A800002455F8043B01349847A642F9D170BD80
:1025B800882700088827000890270008882700082F
:1025C800830730B548D0541E002A3FD0CAB203460C
:1025D80001E0013C3AD303F8012B9D07F9D1032C04
:1025E8002DD9CDB245EA05250F2C45EA054536D942
:1025F800A4F1100222F00F0C03F1200EE6444FEA7A
:10260800121C03F1100242E9045542E90255103246
:102618007245F8D10CF1010214F00C0F03EB021211
:1026280004F00F0C13D0ACF1040323F003030433BC
:10263800134442F8045B9342FBD10CF003042CB121
:10264800CAB21C4403F8012B9C42FBD130BD64463E
:102658001346002CF4D1F9E703461446BFE71A469F
:10266800A446E0E7024B13B1024800F005B87047F2
:10267800000000008D260008002301461A4618466F
:1026880000F01AB838B5084B084D5B1B9C1007D0F2
:10269800043B1D44013C55F804399847002CF9D1F6
:1026A800BDE8384000F054B8942700089027000887
:1026B800704700BF704700BF2DE9F047DFF87CA0E6
:1026C8000646DAF8000098460F469146FFF7F0FFF5
:1026D8001B4B1B68D3F8484124B365681F2D26DCC3
:1026E8005EB96B1C0235DAF80000636044F82570A7
:1026F800FFF7E0FF0020BDE8F08704EB8501012328
:10270800C1F88890D4F88821AB401A43022EC4F847
:102718008821C1F80881E4D1D4F88C211343C4F886
:102728008C31DEE703F5A674C3F84841D5E7DAF83B
:102738000000FFF7BFFF4FF0FF30DCE7380400244C
:1027480084270008F8B500BFF8BC08BC9E4670474F
:0C275800F8B500BFF8BC08BC9E467047F6
:102764000010000000233500D0000000000000002D
:102774000000000001020304010203040607080923
:04278400100000241D
:082788006D260008BD020008E7
:0427900099020008A2
:102794000090D0030090D00301000000100000005E
:1027A40000000000FC02002464030024CC03002485
:1027B4000000000000000000000000000000000015
:1027C4000000000000000000000000000000000005
:1027D40000000000000000000000000000000000F5
:1027E40000000000000000000000000000000000E5
:1027F40000000000000000000000000000000000D5
:1028040000000000000000000000000000000000C4
:1028140000000000000000000000000000000000B4
:1028240000000000000000000000000000000000A4
:102834000000000000000000000000000000000094
:102844000000000000000000010000000000000083
:102854000E33CDAB34126DE6ECDE05000B00000048
:102864000000000000000000000000000000000064
:102874000000000000000000000000000000000054
:102884000000000000000000000000000000000044
:102894000000000000000000000000000000000034
:0C2BC40000000000000000005C04002481
:04000005080014F1EA
:00000001FF
